{
  "_format": "hh-sol-artifact-1",
  "contractName": "VotingContract",
  "sourceName": "contracts/VotingContract.sol",
  "abi": [
    {
      "anonymous": false,
      "inputs": [
        {
          "indexed": true,
          "internalType": "uint256",
          "name": "electionId",
          "type": "uint256"
        },
        {
          "indexed": true,
          "internalType": "uint256",
          "name": "candidateId",
          "type": "uint256"
        },
        {
          "indexed": true,
          "internalType": "address",
          "name": "voter",
          "type": "address"
        }
      ],
      "name": "VoteCast",
      "type": "event"
    },
    {
      "inputs": [
        {
          "internalType": "uint256",
          "name": "_electionId",
          "type": "uint256"
        }
      ],
      "name": "getTotalVotes",
      "outputs": [
        {
          "internalType": "uint256",
          "name": "",
          "type": "uint256"
        }
      ],
      "stateMutability": "view",
      "type": "function"
    },
    {
      "inputs": [
        {
          "internalType": "uint256",
          "name": "_electionId",
          "type": "uint256"
        },
        {
          "internalType": "uint256",
          "name": "_candidateId",
          "type": "uint256"
        }
      ],
      "name": "getVoteCount",
      "outputs": [
        {
          "internalType": "uint256",
          "name": "",
          "type": "uint256"
        }
      ],
      "stateMutability": "view",
      "type": "function"
    },
    {
      "inputs": [
        {
          "internalType": "uint256",
          "name": "_electionId",
          "type": "uint256"
        }
      ],
      "name": "getVotesForElection",
      "outputs": [
        {
          "components": [
            {
              "internalType": "uint256",
              "name": "electionId",
              "type": "uint256"
            },
            {
              "internalType": "uint256",
              "name": "candidateId",
              "type": "uint256"
            },
            {
              "internalType": "address",
              "name": "voter",
              "type": "address"
            },
            {
              "internalType": "uint256",
              "name": "timestamp",
              "type": "uint256"
            }
          ],
          "internalType": "struct VotingContract.Vote[]",
          "name": "",
          "type": "tuple[]"
        }
      ],
      "stateMutability": "view",
      "type": "function"
    },
    {
      "inputs": [
        {
          "internalType": "uint256",
          "name": "",
          "type": "uint256"
        },
        {
          "internalType": "address",
          "name": "",
          "type": "address"
        }
      ],
      "name": "hasVoted",
      "outputs": [
        {
          "internalType": "bool",
          "name": "",
          "type": "bool"
        }
      ],
      "stateMutability": "view",
      "type": "function"
    },
    {
      "inputs": [
        {
          "internalType": "uint256",
          "name": "_electionId",
          "type": "uint256"
        },
        {
          "internalType": "address",
          "name": "_voter",
          "type": "address"
        }
      ],
      "name": "hasVotedInElection",
      "outputs": [
        {
          "internalType": "bool",
          "name": "",
          "type": "bool"
        }
      ],
      "stateMutability": "view",
      "type": "function"
    },
    {
      "inputs": [
        {
          "internalType": "uint256",
          "name": "_electionId",
          "type": "uint256"
        },
        {
          "internalType": "uint256",
          "name": "_candidateId",
          "type": "uint256"
        },
        {
          "internalType": "address",
          "name": "_voter",
          "type": "address"
        }
      ],
      "name": "vote",
      "outputs": [],
      "stateMutability": "nonpayable",
      "type": "function"
    },
    {
      "inputs": [
        {
          "internalType": "uint256",
          "name": "",
          "type": "uint256"
        },
        {
          "internalType": "uint256",
          "name": "",
          "type": "uint256"
        }
      ],
      "name": "voteCounts",
      "outputs": [
        {
          "internalType": "uint256",
          "name": "",
          "type": "uint256"
        }
      ],
      "stateMutability": "view",
      "type": "function"
    },
    {
      "inputs": [
        {
          "internalType": "uint256",
          "name": "",
          "type": "uint256"
        },
        {
          "internalType": "uint256",
          "name": "",
          "type": "uint256"
        }
      ],
      "name": "votes",
      "outputs": [
        {
          "internalType": "uint256",
          "name": "electionId",
          "type": "uint256"
        },
        {
          "internalType": "uint256",
          "name": "candidateId",
          "type": "uint256"
        },
        {
          "internalType": "address",
          "name": "voter",
          "type": "address"
        },
        {
          "internalType": "uint256",
          "name": "timestamp",
          "type": "uint256"
        }
      ],
      "stateMutability": "view",
      "type": "function"
    }
  ],
  "bytecode": "0x608060405234801561001057600080fd5b50610d34806100206000396000f3fe608060405234801561001057600080fd5b50600436106100885760003560e01c8063ac5881701161005b578063ac58817014610139578063c6e36a3214610169578063d2daa1c21461019c578063de2e19a0146101cc57610088565b80632ce35e111461008d57806343859632146100bd57806350d91583146100ed5780635bc261fa14610109575b600080fd5b6100a760048036038101906100a291906107dc565b6101fc565b6040516100b49190610818565b60405180910390f35b6100d760048036038101906100d29190610891565b61024f565b6040516100e491906108ec565b60405180910390f35b61010760048036038101906101029190610907565b61027e565b005b610123600480360381019061011e9190610891565b610593565b60405161013091906108ec565b60405180910390f35b610153600480360381019061014e91906107dc565b6105fa565b6040516101609190610a7c565b60405180910390f35b610183600480360381019061017e9190610a9e565b6106e0565b6040516101939493929190610aed565b60405180910390f35b6101b660048036038101906101b19190610a9e565b61074d565b6040516101c39190610818565b60405180910390f35b6101e660048036038101906101e19190610a9e565b610772565b6040516101f39190610818565b60405180910390f35b6000806000905060005b600260008581526020019081526020016000208054905081101561024557818061022f90610b61565b925050808061023d90610b61565b915050610206565b5080915050919050565b60006020528160005260406000206020528060005260406000206000915091509054906101000a900460ff1681565b60008084815260200190815260200160002060008273ffffffffffffffffffffffffffffffffffffffff1673ffffffffffffffffffffffffffffffffffffffff16815260200190815260200160002060009054906101000a900460ff161561031b576040517f08c379a000000000000000000000000000000000000000000000000000000000815260040161031290610c06565b60405180910390fd5b600073ffffffffffffffffffffffffffffffffffffffff168173ffffffffffffffffffffffffffffffffffffffff160361038a576040517f08c379a000000000000000000000000000000000000000000000000000000000815260040161038190610c72565b60405180910390fd5b600082116103cd576040517f08c379a00000000000000000000000000000000000000000000000000000000081526004016103c490610cde565b60405180910390fd5b600160008085815260200190815260200160002060008373ffffffffffffffffffffffffffffffffffffffff1673ffffffffffffffffffffffffffffffffffffffff16815260200190815260200160002060006101000a81548160ff021916908315150217905550600160008481526020019081526020016000206000838152602001908152602001600020600081548092919061046a90610b61565b91905055506002600084815260200190815260200160002060405180608001604052808581526020018481526020018373ffffffffffffffffffffffffffffffffffffffff168152602001428152509080600181540180825580915050600190039060005260206000209060040201600090919091909150600082015181600001556020820151816001015560408201518160020160006101000a81548173ffffffffffffffffffffffffffffffffffffffff021916908373ffffffffffffffffffffffffffffffffffffffff1602179055506060820151816003015550508073ffffffffffffffffffffffffffffffffffffffff1682847f7fe1d4e6b34e228b5dc059fcdc037c71b216fb2417f47c171e505144a5e4f5fc60405160405180910390a4505050565b600080600084815260200190815260200160002060008373ffffffffffffffffffffffffffffffffffffffff1673ffffffffffffffffffffffffffffffffffffffff16815260200190815260200160002060009054906101000a900460ff16905092915050565b606060026000838152602001908152602001600020805480602002602001604051908101604052809291908181526020016000905b828210156106d5578382906000526020600020906004020160405180608001604052908160008201548152602001600182015481526020016002820160009054906101000a900473ffffffffffffffffffffffffffffffffffffffff1673ffffffffffffffffffffffffffffffffffffffff1673ffffffffffffffffffffffffffffffffffffffff1681526020016003820154815250508152602001906001019061062f565b505050509050919050565b600260205281600052604060002081815481106106fc57600080fd5b9060005260206000209060040201600091509150508060000154908060010154908060020160009054906101000a900473ffffffffffffffffffffffffffffffffffffffff16908060030154905084565b6001602052816000526040600020602052806000526040600020600091509150505481565b600060016000848152602001908152602001600020600083815260200190815260200160002054905092915050565b600080fd5b6000819050919050565b6107b9816107a6565b81146107c457600080fd5b50565b6000813590506107d6816107b0565b92915050565b6000602082840312156107f2576107f16107a1565b5b6000610800848285016107c7565b91505092915050565b610812816107a6565b82525050565b600060208201905061082d6000830184610809565b92915050565b600073ffffffffffffffffffffffffffffffffffffffff82169050919050565b600061085e82610833565b9050919050565b61086e81610853565b811461087957600080fd5b50565b60008135905061088b81610865565b92915050565b600080604083850312156108a8576108a76107a1565b5b60006108b6858286016107c7565b92505060206108c78582860161087c565b9150509250929050565b60008115159050919050565b6108e6816108d1565b82525050565b600060208201905061090160008301846108dd565b92915050565b6000806000606084860312156109205761091f6107a1565b5b600061092e868287016107c7565b935050602061093f868287016107c7565b92505060406109508682870161087c565b9150509250925092565b600081519050919050565b600082825260208201905092915050565b6000819050602082019050919050565b61098f816107a6565b82525050565b61099e81610853565b82525050565b6080820160008201516109ba6000850182610986565b5060208201516109cd6020850182610986565b5060408201516109e06040850182610995565b5060608201516109f36060850182610986565b50505050565b6000610a0583836109a4565b60808301905092915050565b6000602082019050919050565b6000610a298261095a565b610a338185610965565b9350610a3e83610976565b8060005b83811015610a6f578151610a5688826109f9565b9750610a6183610a11565b925050600181019050610a42565b5085935050505092915050565b60006020820190508181036000830152610a968184610a1e565b905092915050565b60008060408385031215610ab557610ab46107a1565b5b6000610ac3858286016107c7565b9250506020610ad4858286016107c7565b9150509250929050565b610ae781610853565b82525050565b6000608082019050610b026000830187610809565b610b0f6020830186610809565b610b1c6040830185610ade565b610b296060830184610809565b95945050505050565b7f4e487b7100000000000000000000000000000000000000000000000000000000600052601160045260246000fd5b6000610b6c826107a6565b91507fffffffffffffffffffffffffffffffffffffffffffffffffffffffffffffffff8203610b9e57610b9d610b32565b5b600182019050919050565b600082825260208201905092915050565b7f416c726561647920766f74656420696e207468697320656c656374696f6e0000600082015250565b6000610bf0601e83610ba9565b9150610bfb82610bba565b602082019050919050565b60006020820190508181036000830152610c1f81610be3565b9050919050565b7f496e76616c696420766f74657220616464726573730000000000000000000000600082015250565b6000610c5c601583610ba9565b9150610c6782610c26565b602082019050919050565b60006020820190508181036000830152610c8b81610c4f565b9050919050565b7f496e76616c69642063616e646964617465204944000000000000000000000000600082015250565b6000610cc8601483610ba9565b9150610cd382610c92565b602082019050919050565b60006020820190508181036000830152610cf781610cbb565b905091905056fea26469706673582212208591da943e54ed6eb9fcf2209cdadfe03f5e536e42a3f55561767fa1a184578064736f6c63430008130033",
  "linkReferences": {},
  "deployedLinkReferences": {}
}